:020000040000FA
:06000000EBEF05F0120019
:020006000000F8
:0600080007EF00F01200FA
:02000E00DACF47
:10001000E4FFE2CFDAFFE9CFE4FFEACFE4FFF6CF77
:10002000E4FFF7CFE4FFF5CFE4FFF3CFE4FFF4CF35
:10003000E4FFFACFE4FF00EE07F0020EE80403E36A
:10004000EECFE4FFFBD700EE0BF0000EE80403E375
:10005000EECFE4FFFBD7E652D9CFE6FFE1CFD9FFE1
:10006000020EE126DE6ADD6A8C6ADECF00F0DDCFAB
:1000700001F0D890015004E61E0E005C000E0158FD
:1000800002E33FEF05F08C50800B01E0010E080DFC
:10009000F3CF06F08C50400B01E0010E070DF3CFBB
:1000A00005F08C50200B01E0010E060DF3CF04F09B
:1000B0008C50100B01E0010E050DF3CF03F08C50B6
:1000C000080B01E0010E040DF3CF02F08C50040B7D
:1000D00001E0010E030DF3CF01F08C50020B01E0A3
:1000E000010EE824006E8C50010B00240124022430
:1000F0000324042405240624DE6EDD6A81BC0CD0B2
:10010000DECF00F0DDCF01F00A0E0026000E012246
:1001100000C0DEFF01C0DDFF81BE38D2DECF00F0BF
:10012000DDCF01F0D890015004E60A0E005C000E0D
:10013000015801E32BD2D9CFE9FFDACFEAFFEE5025
:10014000ED1034E18C80140EE66EC4EC05F0E5523F
:10015000DF2A010E01E3DB2A81BC0CD0DECF00F0E8
:10016000DDCF01F00A0E0026000E012200C0DEFFE6
:1001700001C0DDFF81BA0CD0DECF00F0DDCF01F091
:10018000140E0026000E012200C0DEFF01C0DDFFBC
:1001900081B80CD0DECF00F0DDCF01F01E0E0026BE
:1001A000000E012200C0DEFF01C0DDFFD9CFE9FF54
:1001B000DACFEAFF010EEE1801E1ED5035E18C9047
:1001C0008C82140EE66EC4EC05F0E552DF2A010EB7
:1001D00001E3DB2A81BC0CD0DECF00F0DDCF01F0E3
:1001E0000A0E0026000E012200C0DEFF01C0DDFF66
:1001F00081BA0CD0DECF00F0DDCF01F0140E002666
:10020000000E012200C0DEFF01C0DDFF81B80CD06E
:10021000DECF00F0DDCF01F01E0E0026000E012221
:1002200000C0DEFF01C0DDFFD9CFE9FFDACFEAFF72
:10023000020EEE1801E1ED5035E18C928C84140E23
:10024000E66EC4EC05F0E552DF2A010E01E3DB2A7D
:1002500081BC0CD0DECF00F0DDCF01F00A0E00260D
:10026000000E012200C0DEFF01C0DDFF81BA0CD00C
:10027000DECF00F0DDCF01F0140E0026000E0122CB
:1002800000C0DEFF01C0DDFF81B80CD0DECF00F082
:10029000DDCF01F01E0E0026000E012200C0DEFFA1
:1002A00001C0DDFFD9CFE9FFDACFEAFF030EEE1878
:1002B00001E1ED5035E18C948C86140EE66EC4ECB1
:1002C00005F0E552DF2A010E01E3DB2A81BC0CD0E8
:1002D000DECF00F0DDCF01F00A0E0026000E012275
:1002E00000C0DEFF01C0DDFF81BA0CD0DECF00F020
:1002F000DDCF01F0140E0026000E012200C0DEFF4B
:1003000001C0DDFF81B80CD0DECF00F0DDCF01F001
:100310001E0E0026000E012200C0DEFF01C0DDFF20
:10032000D9CFE9FFDACFEAFF040EEE1801E1ED5074
:1003300035E18C968C88140EE66EC4EC05F0E5521F
:10034000DF2A010E01E3DB2A81BC0CD0DECF00F0F6
:10035000DDCF01F00A0E0026000E012200C0DEFFF4
:1003600001C0DDFF81BA0CD0DECF00F0DDCF01F09F
:10037000140E0026000E012200C0DEFF01C0DDFFCA
:1003800081B80CD0DECF00F0DDCF01F01E0E0026CC
:10039000000E012200C0DEFF01C0DDFFD9CFE9FF62
:1003A000DACFEAFF050EEE1801E1ED5035E18C9849
:1003B0008C8A140EE66EC4EC05F0E552DF2A010EBD
:1003C00001E3DB2A81BC0CD0DECF00F0DDCF01F0F1
:1003D0000A0E0026000E012200C0DEFF01C0DDFF74
:1003E00081BA0CD0DECF00F0DDCF01F0140E002674
:1003F000000E012200C0DEFF01C0DDFF81B80CD07D
:10040000DECF00F0DDCF01F01E0E0026000E01222F
:1004100000C0DEFF01C0DDFFD9CFE9FFDACFEAFF80
:10042000060EEE1801E1ED5035E18C9A8C8C140E1D
:10043000E66EC4EC05F0E552DF2A010E01E3DB2A8B
:1004400081BC0CD0DECF00F0DDCF01F00A0E00261B
:10045000000E012200C0DEFF01C0DDFF81BA0CD01A
:10046000DECF00F0DDCF01F0140E0026000E0122D9
:1004700000C0DEFF01C0DDFF81B80CD0DECF00F090
:10048000DDCF01F01E0E0026000E012200C0DEFFAF
:1004900001C0DDFFD9CFE9FFDACFEAFF070EEE1882
:1004A00001E1ED5035E18C9C8C8E140EE66EC4ECAF
:1004B00005F0E552DF2A010E01E3DB2A81BC0CD0F6
:1004C000DECF00F0DDCF01F00A0E0026000E012283
:1004D00000C0DEFF01C0DDFF81BA0CD0DECF00F02E
:1004E000DDCF01F0140E0026000E012200C0DEFF59
:1004F00001C0DDFF81B80CD0DECF00F0DDCF01F010
:100500001E0E0026000E012200C0DEFF01C0DDFF2E
:10051000D9CFE9FFDACFEAFF080EEE1801E1ED507E
:1005200034E18C9E8C80140EE66EC4EC05F0E5522E
:10053000010EDE6EDD6A81BC0CD0DECF00F0DDCFB7
:1005400001F00A0E0026000E012200C0DEFF01C0ED
:10055000DDFF81BA0CD0DECF00F0DDCF01F0140E4C
:100560000026000E012200C0DEFF01C0DDFF81B8C1
:100570000CD0DECF00F0DDCF01F01E0E0026000E05
:10058000012200C0DEFF01C0DDFFC8D5DECF00F0D4
:10059000DDCF01F0D890015004E60A0E005C000E99
:1005A000015801E23BD2DECF02F0DDCF03F0D8905C
:1005B000035004E6140E025C000E035801E32ED231
:1005C000D9CFE9FFDACFEAFF120EEE1801E1ED50C4
:1005D00035E18C908C8E140EE66EC4EC05F0E5527D
:1005E000DF06010E01E2DB0681BE0CD0DECF00F09B
:1005F000DDCF01F00A0E005E000E015A00C0DEFFE2
:1006000001C0DDFF81BA0CD0DECF00F0DDCF01F0FC
:100610000A0E0026000E012200C0DEFF01C0DDFF31
:1006200081B80CD0DECF00F0DDCF01F01E0E002629
:10063000000E012200C0DEFF01C0DDFFD9CFE9FFBF
:10064000DACFEAFF110EEE1801E1ED5035E18C9E94
:100650008C8C140EE66EC4EC05F0E552DF06010E3C
:1006600001E2DB0681BE0CD0DECF00F0DDCF01F071
:100670000A0E005E000E015A00C0DEFF01C0DDFF61
:1006800081BA0CD0DECF00F0DDCF01F00A0E0026DB
:10069000000E012200C0DEFF01C0DDFF81B80CD0DA
:1006A000DECF00F0DDCF01F01E0E0026000E01228D
:1006B00000C0DEFF01C0DDFFD9CFE9FFDACFEAFFDE
:1006C000100EEE1801E1ED5035E18C9C8C8A140E71
:1006D000E66EC4EC05F0E552DF06010E01E2DB0632
:1006E00081BE0CD0DECF00F0DDCF01F00A0E005E3F
:1006F000000E015A00C0DEFF01C0DDFF81BA0CD040
:10070000DECF00F0DDCF01F00A0E0026000E012240
:1007100000C0DEFF01C0DDFF81B80CD0DECF00F0ED
:10072000DDCF01F01E0E0026000E012200C0DEFF0C
:1007300001C0DDFFD9CFE9FFDACFEAFF0F0EEE18D7
:1007400001E1ED5035E18C9A8C88140EE66EC4EC14
:1007500005F0E552DF06010E01E2DB0681BE0CD09A
:10076000DECF00F0DDCF01F00A0E005E000E015A70
:1007700000C0DEFF01C0DDFF81BA0CD0DECF00F08B
:10078000DDCF01F00A0E0026000E012200C0DEFFC0
:1007900001C0DDFF81B80CD0DECF00F0DDCF01F06D
:1007A0001E0E0026000E012200C0DEFF01C0DDFF8C
:1007B000D9CFE9FFDACFEAFF0E0EEE1801E1ED50D6
:1007C00035E18C988C86140EE66EC4EC05F0E5528B
:1007D000DF06010E01E2DB0681BE0CD0DECF00F0A9
:1007E000DDCF01F00A0E005E000E015A00C0DEFFF0
:1007F00001C0DDFF81BA0CD0DECF00F0DDCF01F00B
:100800000A0E0026000E012200C0DEFF01C0DDFF3F
:1008100081B80CD0DECF00F0DDCF01F01E0E002637
:10082000000E012200C0DEFF01C0DDFFD9CFE9FFCD
:10083000DACFEAFF0D0EEE1801E1ED5035E18C96AE
:100840008C84140EE66EC4EC05F0E552DF06010E52
:1008500001E2DB0681BE0CD0DECF00F0DDCF01F07F
:100860000A0E005E000E015A00C0DEFF01C0DDFF6F
:1008700081BA0CD0DECF00F0DDCF01F00A0E0026E9
:10088000000E012200C0DEFF01C0DDFF81B80CD0E8
:10089000DECF00F0DDCF01F01E0E0026000E01229B
:1008A00000C0DEFF01C0DDFFD9CFE9FFDACFEAFFEC
:1008B0000C0EEE1801E1ED5035E18C948C82140E93
:1008C000E66EC4EC05F0E552DF06010E01E2DB0640
:1008D00081BE0CD0DECF00F0DDCF01F00A0E005E4D
:1008E000000E015A00C0DEFF01C0DDFF81BA0CD04E
:1008F000DECF00F0DDCF01F00A0E0026000E01224F
:1009000000C0DEFF01C0DDFF81B80CD0DECF00F0FB
:10091000DDCF01F01E0E0026000E012200C0DEFF1A
:1009200001C0DDFFD9CFE9FFDACFEAFF0B0EEE18E9
:1009300001E1ED5035E18C928C80140EE66EC4EC32
:1009400005F0E552DF06010E01E2DB0681BE0CD0A8
:10095000DECF00F0DDCF01F00A0E005E000E015A7E
:1009600000C0DEFF01C0DDFF81BA0CD0DECF00F099
:10097000DDCF01F00A0E0026000E012200C0DEFFCE
:1009800001C0DDFF81B80CD0DECF00F0DDCF01F07B
:100990001E0E0026000E012200C0DEFF01C0DDFF9A
:1009A000D9CFE9FFDACFEAFF0A0EEE1801E1ED50E8
:1009B00034E18C908C8E140EE66EC4EC05F0E5529A
:1009C000110EDE6EDD6A81BE0CD0DECF00F0DDCF11
:1009D00001F00A0E005E000E015A00C0DEFF01C0E9
:1009E000DDFF81BA0CD0DECF00F0DDCF01F00A0EC2
:1009F0000026000E012200C0DEFF01C0DDFF81B82D
:100A00000CD0DECF00F0DDCF01F01E0E0026000E70
:100A1000012200C0DEFF01C0DDFFB8D5DECF00F04F
:100A2000DDCF01F0D890015004E6140E005C000EFA
:100A3000015823E3DECF02F0DDCF03F0D89003505E
:100A400004E61E0E025C000E035817E281BE02D0BF
:100A5000DE6ADD6A81BC02D0DE6ADD6A81B80CD054
:100A6000DECF00F0DDCF01F01E0E0026000E0122C9
:100A700000C0DEFF01C0DDFFD1D735EF00F0020E70
:100A8000E15C02E2E16AE552E16EE552E7CFD9FFAF
:100A9000E55200EE0AF0000EE80403E3E5CFEDFFB7
:100AA000FBD700EE08F0020EE80403E3E5CFEDFF0C
:100AB000FBD7E5CFFAFFE5CFF4FFE5CFF3FFE5CFB6
:100AC000F5FFE5CFF7FFE5CFF6FFE5CFEAFFE5CF8E
:100AD000E9FFE5CFDAFF11008C6A956A9368F28E20
:0A0AE000F28CF286F19EFFD712009F
:060AEA00060EF66E000E80
:100AF000F76E000EF86E00010900F550856F0900D1
:100B0000F550866F03E1856701D03DD00900F550AF
:100B1000806F0900F550816F0900F550826F090060
:100B20000900F550E96E0900F550EA6E0900090068
:100B30000900F550836F0900F550846F0900090022
:100B4000F6CF87F0F7CF88F0F8CF89F080C0F6FFB6
:100B500081C0F7FF82C0F8FF0001835302E1845394
:100B600007E00900F550EE6E8307F8E28407F9D735
:100B700087C0F6FF88C0F7FF89C0F8FF000185072E
:080B8000000E865BBFD71200D6
:080B8800FF0EE3500A6EEF0EB0
:100B900001D0F30EE76EE72ECBEF05F00C0E096ED9
:100BA000E76AE72ED1EF05F0092ED0EF05F00A2E07
:060BB000C9EF05F0120080
:0A0BB600800EF36E00EE00F00F0E4B
:100BC00001D81200EA6002D0EE6AFCD7F350E96067
:060BD0001200EE6AFCD7E2
:0A0BD6001EEE00F02EEE00F0F86AAB
:100BE000089C75EC05F0F9EC05F06CEC05F0FBD712
:020BF0001200F1
:020BF2001200EF
:020000040030CA
:010005008179
:00000001FF
