:020000040000FA
:0600000017EF01F01200F1
:020006000000F8
:0600080007EF00F01200FA
:02000E00DACF47
:10001000E4FFE2CFDAFFE6528C6A8150100B0CE16C
:100020008150200B09E18150400B06E18150800B8B
:1000300003E1BF0E8C6EF1D78C6A8150100B0CE07F
:100040008150200B09E18150400B06E18150800B6B
:1000500003E1860E8C6EF1D78C6A8150100B0CE197
:100060008150200B09E08150400B06E18150800B4C
:1000700003E1DB0E8C6EF1D78C6A8150100B0CE023
:100080008150200B09E08150400B06E18150800B2C
:1000900003E1CF0E8C6EF1D78C6A8150100B0CE10E
:1000A0008150200B09E18150400B06E08150800B0C
:1000B00003E1E60E8C6EF1D78C6A8150100B0CE0D8
:1000C0008150200B09E18150400B06E08150800BEC
:1000D00003E1ED0E8C6EF1D78C6A8150100B0CE1B0
:1000E0008150200B09E08150400B06E08150800BCD
:1000F00003E1FD0E8C6EF1D78C6A8150100B0CE081
:100100008150200B09E08150400B06E08150800BAC
:1001100003E1870E8C6EF1D78C6A8150100B0BE1D6
:100120008150200B08E18150400B05E18150800B8C
:1001300002E08C68F2D78C6A8150100B0CE0815081
:10014000200B09E18150400B06E18150800B03E058
:10015000EF0E8C6EF1D7E552E5CFDAFF11008C6A15
:10016000956A9368F28EF28CF286F19EFFD71200A8
:10017000060EF66E000EF76E000EF86E0001090016
:10018000F550856F0900F550866F03E1856701D052
:100190003DD00900F550806F0900F550816F0900CE
:1001A000F550826F09000900F550E96E0900F5501D
:1001B000EA6E090009000900F550836F0900F55047
:1001C000846F09000900F6CF87F0F7CF88F0F8CFE9
:1001D00089F080C0F6FF81C0F7FF82C0F8FF000100
:1001E000835302E1845307E00900F550EE6E830764
:1001F000F8E28407F9D787C0F6FF88C0F7FF89C007
:0E020000F8FF00018507000E865BBFD71200D5
:02020E00800E60
:10021000F36E00EE00F00F0E01D81200EA6002D07B
:0E022000EE6AFCD7F350E9601200EE6AFCD7DC
:02022E001EEEC2
:1002300000F02EEE00F0F86A019CB8EC00F025EC1E
:0A02400001F0AFEC00F0FBD7120054
:02024A001200A0
:020000040030CA
:010005008179
:00000001FF
