:020000040000FA
:060000008BEF0CF0120072
:020006001200E6
:060008006DEF08F012008C
:02000E000100EF
:0C001000701900009800000002000000C1
:04001C004AEC05F0B5
:10002000FB0EDBCFF3FFDB06F35000090AE098EC90
:1000300005F0FA0E03EC06F0F3E1151CF1E1010EF8
:1000400001D0000E79EF05F04AEC05F03B0EE124FB
:1000500002E3E168E652E16E010EDB6A020EDB6A42
:10006000F90EDBCFF6FFFA0EDBCFF7FFFB0EDBCF8F
:10007000F8FF0800F550DF6EDF5002E19DEF04F05D
:10008000250EDF5C02E090EF04F0030EDB6A040E45
:10009000DB6A050EDB6A060EDB6A070EDB6AB2EC72
:1000A00004F02D0EDF5C0CE02B0EDF5C09E0200E6F
:1000B000DF5C06E0230EDF5C03E0300EDF5C1AE15C
:1000C000DF50300A14E0130A0FE0030A0AE00B0ABB
:1000D00005E0060AE4E1030EDB80E1D7030EDB82D4
:1000E000DED7030EDB84DBD7030EDB86D8D7030E07
:1000F000DB88D5D72A0EDF5C1BE1AEEC04F0FCEC0C
:1001000004F010E0030EDB8006680768130EDBCFF7
:100110000BF0140EDBCF0CF040EC08F0040E04C022
:10012000DBFF03D0130EE5EC04F0B2EC04F00BD0CF
:10013000090EDB6A53EC05F003E0C7EC05F0FAD7D3
:10014000090EE5EC04F0030EDBB0DB982E0EDF5C4D
:100150001BE1B2EC04F02A0EDF5C0BE1AEEC04F024
:10016000FCEC04F003E1130E37EC05F0B2EC04F004
:100170000BD0090EDB6A53EC05F003E0C7EC05F089
:10018000FAD7090E37EC05F0680EDF5C07E1B2EC38
:1001900004F0680EDF5C1DE1030E18D0740EDF5C06
:1001A00017E07A0EDF5C14E0480EDF5C06E0540EC8
:1001B000DF5C03E05A0EDF5C02E1020E07D06C0E3A
:1001C000DF5C03E06A0EDF5C04E1010E8AEC05F0FF
:1001D000C9DBDF506E0A01E17FD31E0A01E192D133
:1001E000200A01E18FD13F0A01E149D11A0A01E158
:1001F00046D10D0A01E143D1200A01E140D13A0A7A
:1002000001E13DD1200A01E13AD1260A01E135D1CF
:100210000D0A01E132D11A0A01E1D9D0200A4AE0DF
:10022000300A1FE0460A0EE0250A01E083D3D950C8
:10023000F90FE96EFF0EDA20EA6E010EEE5E000E97
:10024000EE5AEE5A98EC05F0250EE66E95DB03E1CA
:10025000151C01E169D394EC05F001E26BD3DB2AB4
:1002600069D3080EDB6A040EDB50010806E2040EB7
:10027000DB045CEC05F0DB508BDB080EDB5009E0A7
:10028000030EDB50010B05E172DB01E04DD3080EDC
:10029000DB6A64DBEFCFDFFF0CEC06F003E1151C3B
:1002A00001E142D394EC05F001E3DB2A60DB01E1DC
:1002B00041D33AD3070EDB5002080FE1D8EC05F02A
:1002C000030E9FEC05F00E0EEECFDBFF0F0EEECF10
:1002D000DBFF100EEECFDBFF20D0F70EDBCF17F0E9
:1002E000F80EDBCF18F0020E175E000E185AF70E4C
:1002F00017C0DBFFF80E18C0DBFF17C0E9FF18C0FE
:10030000EAFF8FEC05F0166A0E0E14C0DBFF0F0E2D
:1003100015C0DBFF100E16C0DBFF0E0EDBCFE6FFB5
:100320000F0EDBCFE6FF100EDBCFE6FFC4EC0BF0C9
:10033000E552E552E552130E05C0DBFF140E06C070
:10034000DBFF060EDB5005E0130ED3EC05F001E2F7
:100350006ADBF7EC05F002E2130E37DBBAEC05F0CE
:1003600006E0040ED3EC05F002E2050E2EDB030ED0
:10037000DBB005D0FCDA01E0D7D2080EDB6A090E4B
:10038000DB6A0E0EDBCFF6FF0F0EDBCFF7FF100E92
:10039000DBCFF8FF0800F550DF6EDF5014E0FDEC16
:1003A00005F011E20CEC06F003E1151C01E1BCD2F2
:1003B000BBDB01E3DB2A090EDB2AD9500E0FE96E05
:1003C000000ECBDBE7D7D3DA01E1B4D2ADD2C6DA87
:1003D000110EEECFDBFF120EEDCFDBFF110EDBCFE8
:1003E000E6FF120EDBCFE6FFB6EC0BF0E552E5526E
:1003F000130EF3CFDBFF140EF4CFDBFF060EDB5042
:1004000004E0130ED0DB01E20EDBF7EC05F002E2B4
:10041000130EDBDAAFDB05E0040EC5DB02E2050EEE
:10042000D4DA030EDBB005D0A2DA01E07DD2080EEB
:10043000DB6A090EDB6A110EDBCFE9FF120EDBCFA0
:10044000EAFFEFCFDFFFDF5014E0D7DB12E2E4DB9F
:1004500003E1151C01E168D267DB01E3DB2A090E29
:10046000DB2A110EDB2ADBCFE9FF120EE8E3DB2AE1
:10047000E6D77DDA01E15ED257D2030EDB8E070E9E
:10048000DB0410E195DB040E5ADB0A0EEECFDBFF36
:100490000B0EEECFDBFF0C0EEECFDBFF0D0EEECF23
:1004A000DBFF6CD0070EDB5003082CE1030EDBAE44
:1004B0000DD0B2DA020E76DAEFCF14F0156A166AB2
:1004C000176A14AE39D01568166835D0F70EDBCF31
:1004D00015F0F80EDBCF16F0020E155E000E165A60
:1004E000F70E15C0DBFFF80E16C0DBFF15C0E9FFE5
:1004F00016C0EAFFEFCF14F00A0E14C0DBFF0B0E9C
:10050000DB6A38D0070EDB50020809E1030EDBAED0
:1005100004D059DB16AE10D00ED055DB0DD0030E33
:10052000DBAE12D079DA020E3DDAF9DA166A176A12
:1005300015AE02D016681768E2DA0C0E16C0DBFFA3
:100540000D0E17C0DBFF1AD0F70EDBCF16F0F80E3A
:10055000DBCF17F0020E165E000E175AF70E16C00C
:10056000DBFFF80E17C0DBFF16C0E9FF17C0EAFF7C
:10057000D6DAC5DA0C0EDB6A0D0EDB6A060EDB502E
:1005800005E1010EF36E050EF3CFDBFF150EDB6AFE
:10059000160EDB6AD950370F146E000EDA20156E76
:1005A000390E14C0DBFF3A0E15C0DBFF380EDB6AD4
:1005B000080EDB6A0A0EAEDADF50780A12E0200A73
:1005C00010E0280A0CE0200A0AE03F0A06E00D0AC3
:1005D00002E0200A08E1020E05D0080E03D0080E42
:1005E000DF26100E97DA030EDBBE02D0DB92DB941F
:1005F000DB50800B24E08ADAD890030EEB50000A1F
:1006000008E6000EEE5C000EEE58000EEE58000EEE
:10061000EE5815E213DA09680A680B680C687EEC7C
:100620000BF00A0E00C0DBFF0B0E01C0DBFF0C0E4F
:1006300002C0DBFF0D0E03C0DBFF2D0E08D0030E42
:10064000DBA202D02B0E03D0DBA408D0200EF36E69
:10065000170EF3CFDBFF150EDB2A02D0170EDB6A75
:10066000050EDB5003E1B7D901E189D04E0E146EBF
:10067000190E156E000E166E070EDBCF17F0186AF6
:10068000196A1A6A17C009F018C00AF019C00BF0ED
:100690001AC00CF0D3D9E9EC0BF014500024F36E1F
:1006A00015500120F46E16500220F86EF4CFF7FFBB
:1006B000F3CFF6FF0800090EF5CFDBFF580EDF5C25
:1006C0000FE1610EF36E090E7BD90AE3200E146E62
:1006D000090EDBCFE7FF1450E75E090EE7CFDBFF23
:1006E000070EDBCF14F0156A166A176A0FDA14C00A
:1006F00009F015C00AF016C00BF017C00CF0EECFD1
:1007000004F0EECF05F0EECF06F0EFCF07F0E9EC06
:100710000BF007C0EDFF06C0EDFF05C0EDFF04C004
:10072000EFFF390EDBCFE9FFDB063A0EDBCFEAFF46
:1007300001E2DB06090EDBCFEFFF150EDB2A4BD9FA
:1007400095E1030EDBA61DD06F0EDF5C06E1C1D97B
:1007500018E3150EDB285BDA14D0780EDF5C09E0B5
:10076000580EDF5C06E0620EDF5C03E0420EDF5CE9
:1007700008E1020EF36E160EF3CFDBFF02D0150E6A
:10078000DB6A030EDB50100B0EE0040EDBCF14F01F
:10079000050EDB50D880145406E2060EDB5003E150
:1007A000040EDB5034DA95D90AE2050EDBCFE7FF01
:1007B000150EDB50E75E050EE7CFDBFF02D0050E1E
:1007C000DB6A040EDBCF14F0160E45D9D880145422
:1007D00014E2160EDBCFE6FF150EDBCFE6FF040EAC
:1007E000DBCFE6FF050EDB50E552E75CE552D88033
:1007F000E754E552D880E7545FD9030EDB50010B74
:100800000BE1080EDB5008E0B2D801E08DD0080EF5
:10081000DB50BED8080EDB6A170EDB5007E088D924
:10082000170EF1D903E1151C01E17ED0160EDB5045
:1008300016E07ED9300EE66E9FD802E1151C74E0FA
:1008400077D9DFCFE6FF3CEC0BF0E552E552E552FD
:10085000F4CF15F00001F31C02E1151C65E0050E54
:10086000DBCF14F0160EDB50D880145409E2050ECD
:10087000DBCFE7FF160EDB50E75E050EE7CFDBFFB1
:10088000300EE66E050ECBD94FE1390EDB2ADBCFF9
:10089000E9FF3A0E01E3DB2ADBCFEAFF090EEFCFD7
:1008A000DBFFDB500EE044D9090EADD902E1151C87
:1008B0003BE0390EDB2ADBCFE9FF3A0EEDE3DB2A22
:1008C000EBD755D831E1160EDBCFE6FF080EC3D8C3
:1008D000E552E7245DD82ED0070EDB50030A1CE05A
:1008E000010A14E0030A07E07BD9DBCFEEFF020E1A
:1008F000DBCFEDFF1FD0F5D8196A17AE02D018680C
:1009000019682CD8BCD819C0EEFF14D0EAD817BE8D
:10091000186824D8B4D80ED063D9DBCFEFFF0AD043
:100920007BD905E1151C03E1F368F46810D0FCD80D
:1009300001E3DB2A79D939EF00F0010EDBCF14F0A7
:10094000020EDBCF15F014C0F3FF15C0F4FF3B0E11
:10095000E15C02E2E16AE552E16ECBD029D9020EF8
:100960009FEF05F061D90800F550DF6E1200200EF0
:10097000E66E080E0FEF06F03CEC0BF0E552E55288
:10098000E552F3CF14F0F4CF15F00001F31C120080
:10099000146E156AD950010F4DD91450EE2615501A
:1009A000ED221200185E000E195AF70E18C0DBFF78
:1009B000F80E19C0DBFF18C0E9FF19C0EAFF1200EA
:1009C000DBCFF4FFF350F45C1200DB50E76E040E53
:1009D000E7CFDBFF12000A0EDBCF14F00B0EDBCFEC
:1009E00015F00C0EDBCF16F00D0EDBCF17F0145008
:1009F0001510161017101200130EEECFDBFF140E99
:100A0000EDCFDBFF130EDBCF14F0140EDBCF15F0B0
:100A10000001800E15141200F70EDBCF18F0F80E4F
:100A2000DBCF19F01200050EDB50E66ED950130F24
:100A300001D9E552E750EE6EED6A12000A0EDBCFE7
:100A400004F00B0EDBCF05F00C0EDBCF06F00D0E25
:100A5000DBCF07F01200DBCFE6FF150EDBCFE6FFA2
:100A6000050EDB50E552E724E552E7241200DB5087
:100A7000CED8010EF36E060EF3CFDBFF1200EE5060
:100A8000EFCFEAFFE96E16C0EEFF17C0EEFF18C009
:100A9000EEFF1200D9CFE6FFDACFE6FFE1CFD9FFB4
:100AA000E2CFDAFF1200DFCFE6FFE66A79EC0CF066
:100AB000E552E552F3501200E76E080EE7CFDBFF78
:100AC0001200EECF14F0EECF15F0EFCF16F0176A4C
:100AD0001200050EDBCF14F0150EDB50D880145435
:100AE0001200010EDBCF16F0020EDBCF17F0186AF2
:100AF0001200E552E5CFDAFFE7CFD9FF12000A0E68
:100B000014C0DBFF0B0E15C0DBFF1200D9500A0F1B
:100B10001AEF06F0F36E070EF3CFDBFF1200EECFF5
:100B200014F0EFCF15F01200010EDB2A020E1200B6
:100B3000FC0EDBCFE6FFFD0EDBCFE6FF1200145EFE
:100B4000000E155AF70E14C0DBFFF80E15C0DBFFC0
:100B500014C0E9FF15C0EAFF1200DA20EA6EEF2A9E
:100B6000EECFF6FF000EEF22EECFF7FFEF22EECF33
:100B7000F8FF1200040EDBCFE6FF130EDB50E55248
:100B8000E75C9ADFDB5004DF060EDB501200090E33
:100B9000DB500A0DF350DF24D00FE76E090EE7CFCC
:100BA000DBFFB2EF04F0DB50F36E050EE0EF04F074
:100BB000F70EDBCF14F0F80EDBCF15F01200DFCF0D
:100BC000E6FFBCEF04F028DF030EECDE61EF05F07A
:100BD0000EEC00F0E552E552E552E5520009120034
:100BE000BDDEEE50EFCFEAFFE96E010E1200130EEC
:100BF000DB50F36E040EE0EF04F0040EDB50F36EF6
:100C0000090EE0EF04F0DBCFE6FFBCEF04F0E76E87
:100C1000050EE7CFDBFF12008BDFDFEF05F0DBCF48
:100C2000E6FF86DFE8EF05F0D950F90FE96EFF0E19
:0E0C3000ADEF05F0E96E000EDA20EA6E12005C
:020C3E000F9E07
:100C400008D00F9E07AE05D0066C071EE86A072283
:100C50000F8E07C001F006C000F0136A126A8E0EF4
:100C6000026E036AD6EF07F00D7E0F6A12EC08F0F1
:100C70002AEC08F00FB6BAEF07F00FA20AD00FAABD
:100C800003D00FBEBAEF07F00FA4C6EF07F0C3EF13
:100C900007F00FAA05D00FACC6EF07F0C3EF07F0BF
:100CA0000FA00AD00FA808D00FBE04D00FA402D006
:100CB000CFEF07F0D3EF07F0126A036A0D50085C1C
:100CC000116E10E305C013F006C000F007C001F07C
:100CD00008C010F00AC005F00BC006F00CC007F009
:100CE0000F3A09D00AC013F00BC000F00CC001F09D
:100CF0000DC010F0116C0F9E0FBC0F8E10C002F0D3
:100D00000FB002EF08F01A0E116002EF08F0026A4D
:100D1000086A0FA408D0056C061E071E081EE86AA4
:100D20000622072208220FAC08D0136C001E011EF9
:100D3000021EE86A002201220222046A115207E020
:100D400008340732063205320432112EF9D7055025
:100D5000132606500022075001220850022204C028
:100D600012F00F9E02AE0BD0126C131E001E011E5D
:100D7000021EE86A13220022012202220F8E02A024
:100D800006D0D8800132003213321232102A10C03D
:100D900002F0D6EF07F00F6A12EC08F02AEC08F028
:100DA0000FB6BAEF07F00FA205D00FBABAEF07F0EF
:100DB000C1EF07F00FBACDEF07F00FA005D00FB8C5
:100DC000BAEF07F0CDEF07F00FB8C1EF07F0036AF5
:100DD0007F0E0824026EE86A03220D50025EE86A64
:100DE000035A1A0E106E086A126A136A006A016AC0
:100DF0000A50055E0B50065A0C50075A000E085A4E
:100E000009E70A5005260B5006220C500722000E57
:100E1000082201D0128AD8900536063607360836E1
:100E2000D8901236133600360136102EE1D707500F
:100E300006100510D8A4128AD6EF07F00F6A12EC3C
:100E400008F02AEC08F00FB6BAEF07F00FA205D0B1
:100E50000FB8BAEF07F0C1EF07F00FAA05D00FB037
:100E6000BAEF07F0C1EF07F00FB002D00FA802D021
:100E7000CDEF07F0036A0D500824026EE86A0322E2
:100E80007E0E025EE86A035A126A136A006A016AF9
:100E90000C500702F4CF01F0F3CF00F00B50070223
:100EA000F3501326F4500022000E01220C500602CB
:100EB000F3501326F4500022000E01220A500702BC
:100EC000F3501226F4501322000E002201220B5080
:100ED0000602F3501226F4501322000E00220122C3
:100EE0000C500502F3501226F4501322000E00227B
:100EF00001220A500602F4501226000E132200228C
:100F000001220B500502F4501226000E132200227B
:100F10000122D6EF07F00F6A12EC08F00FB695EF3A
:100F200007F00FA20ED00FB405D07F0E076EFF0E94
:100F3000066E1FD0800E076E066A1BD0076A066A0F
:100F400018D00FB0FBD78F0E0860EDD77E0E086467
:100F5000F5D78E0E085C05E0D89007320632082AD5
:100F6000F8D70FA406D0066C071EE86A072207AE62
:100F7000E5D712007F0E086EFF0E076E066E056E37
:100F800012007F0E0FBEFF0E086E02D07F0E086E9D
:100F9000800E076E066A056AF3D70FAE04D0800E86
:100FA000086E076AF7D7086A076AF4D7015000107D
:100FB00013101210F8E003BEF0D701BE0CD002509F
:100FC0000310EBE0D89012361336003601360206D5
:100FD000D8A00306F2D70350D4E10228D2E012AE23
:100FE00011D07F0E121402E113A00CD0132AE86A6C
:100FF0000022012207E3D880013200321332022A94
:101000000228BFE00250C9E013C005F000C006F09E
:101010000134076E0230086E0732089E0FBE088E3C
:10102000C0EF07F00736083602E30F840F7E06E1B3
:101030000F80086A076A066A056A1200082803E03A
:10104000D88007321200D890073202E10F821200D6
:101050000F8612000C360D3602E30F8C0F7E06E170
:101060000F880D6A0C6A0B6A0A6A12000D2803E0E9
:10107000D8800C321200D8900C32EAE10F8A1200AC
:1010800007C013F006C012F006500B02F4CF05F0B3
:10109000F3CF04F007500C02F4CF07F0F3CF06F0C3
:1010A0000B02F3500526F4500622E86A072212507C
:1010B0000C02F3500526F4500622E86A07220CAE13
:1010C00066EF08F01250065E1350075A13AE000C7C
:0A10D0000B50065E0C50075A000C8E
:0610DA00DACFE4FFE2CFD3
:1010E000DAFFE9CFE4FFEACFE4FFF6CFE4FFF7CF82
:1010F000E4FFF8CFE4FFF5CFE4FFF3CFE4FFF4CF54
:10110000E4FFFACFE4FFFBCFE4FF00EE00F0140EA3
:10111000E80403E3EECFE4FFFBD700EE14F00C0E7F
:10112000E80403E3EECFE4FFFBD7E652F2A458D085
:10113000D59ECD90AF0EE66E3C0EE66E46EC0CF002
:10114000E552E5528C808C828C848C86F29480C02F
:1011500006F081C007F021EC06F005C024F006C0BF
:1011600025F007C026F008C027F0120E0A6E030E05
:101170000B6E9C0E0C6EC10E0D6E24C005F025C0CA
:1011800006F026C007F027C008F01EEC07F005C0E7
:1011900020F006C021F007C022F008C023F00A6A40
:1011A000500E0B6E750E0C6E470E0D6E20C005F0C6
:1011B00021C006F022C007F023C008F035EC06F08D
:1011C0008BEC07F006C08CF007C08DF08CC0E6FFFA
:1011D0008DC0E6FF2AEC0CF0E552E552D58ECD80AD
:1011E0009EA005D08C908C928C948C969E90FF0E35
:1011F0000001801902E1030E811903E18C888C9AA9
:101200008C9C8051811103E18C988C8A8C9C813557
:1012100004E28051CC08010E81550BE2D890815137
:1012200004E6330E805D020E815903E28C988C9A9D
:101230008C8CE55200EE1FF00C0EE80403E3E5CFC2
:10124000EDFFFBD700EE13F0140EE80403E3E5CF47
:10125000EDFFFBD7E5CFFBFFE5CFFAFFE5CFF4FFCE
:10126000E5CFF3FFE5CFF5FFE5CFF8FFE5CFF7FFDB
:10127000E5CFF6FFE5CFEAFFE5CFE9FFE5CFDAFFFF
:101280001100836A956A020E926ED09EF28EF28CE5
:10129000F28A9D80110ED56EAF0EE66E3C0EE66EA4
:1012A00046EC0CF0E552E552800ECD6E880EE66EEF
:1012B000F40EE66EE66A2AEC0CF0E552E552E552D1
:1012C000D58ECD80400EE66EE66A2C0EE66EF7EC0B
:1012D0000AF0E552E552E552050EC26E0D0EC16EE2
:1012E000810EC06EC282C2B2FED7C4500001826FAE
:1012F000836B82C015F0146AC3501424806F000EF3
:101300001520816F80C006F081C007F021EC06F047
:1013100005C01CF006C01DF007C01EF008C01FF07D
:101320000A6A0B6A340E0C6E430E0D6E1CC005F07B
:101330001DC006F01EC007F01FC008F01EEC07F02D
:1013400005C018F006C019F007C01AF008C01BF05D
:101350000A6AC00E0B6E7F0E0C6E440E0D6E18C026
:1013600005F019C006F01AC007F01BC008F0CBEC5E
:1013700006F005C014F006C015F007C016F008C04E
:1013800017F00A6A0B6AB40E0C6E420E0D6E14C092
:1013900005F015C006F016C007F017C008F034ECD1
:1013A00006F005C084F006C085F007C086F008C0CE
:1013B00087F00A6A0B6AB40E0C6E420E0D6E84C082
:1013C00005F085C006F086C007F087C008F035EC50
:1013D00006F005C018F006C019F007C01AF008C0E2
:1013E0001BF00A6A0B6AC80E0C6E420E0D6E18C016
:1013F00005F019C006F01AC007F01BC008F01EEC7B
:1014000007F005C014F006C015F007C016F008C0BC
:1014100017F00A6A0B6A340E0C6E430E0D6E14C080
:1014200005F015C006F016C007F017C008F0CBECA9
:1014300006F005C088F006C089F007C08AF008C031
:101440008BF088C005F089C006F08AC007F08BC019
:1014500008F08BEC07F006C014F007C015F014C0BC
:10146000E6FF15C0E6FF84C005F085C006F086C023
:1014700007F087C008F08BEC07F006C016F007C035
:1014800017F016C0E6FF17C0E6FF80C0E6FF81C078
:10149000E6FF1A0EE66E180EE66E000EE66EABEC78
:1014A0000AF0186E090EE15E1850B80EE66E62EC96
:0814B0000CF0E55217D7120001
:0814B8000E0EF66E000EF76E39
:1014C000000EF86E00010900F550936F0900F55009
:1014D000946F03E1936701D03DD00900F5508E6F02
:1014E0000900F5508F6F0900F550906F0900090051
:1014F000F550E96E0900F550EA6E0900090009008F
:10150000F550916F0900F550926F09000900F6CF70
:1015100095F0F7CF96F0F8CF97F08EC0F6FF8FC01A
:10152000F7FF90C0F8FF0001915302E1925307E0EA
:101530000900F550EE6E9107F8E29207F9D795C0D1
:10154000F6FF96C0F7FF97C0F8FF00019307000E63
:06155000945BBFD71200FE
:0A155600D9CFE6FFDACFE6FFE1CFC0
:10156000D9FFE2CFDAFFE652E652E652E652D95010
:10157000FB0F146EFF0EDA20156E14C0DEFFDD6E59
:10158000DECFE6FFDDCFE6FFFB0EDBCFE6FFFC0E96
:10159000DBCFE6FFFD0EDBCFE6FF98C0E6FF99C08C
:1015A000E6FF24EC00F0146E070EE15C02E2E16A53
:1015B000E552E16E1450020EF3CFDBFF030EF4CFC1
:1015C000DBFF020EDBCF14F0030EDBCF15F014C0EF
:1015D000F3FF15C0F4FF040EE15C02E2E16AE5529C
:0E15E000E16EE552E5CFDAFFE7CFD9FF12004A
:0215EE00D9CF53
:1015F000E6FFDACFE6FFE1CFD9FFE2CFDAFFAC6A50
:10160000AB6AFD0EDBB0AC88DBA202D0AC8CAB8C3D
:10161000DBB4AC8EDBA602D0AB8801D0AB8ADBB8E2
:10162000AC849E98DBBAAB86DBAC02D09D8A01D03D
:101630009D9A9E9ADBAE02D09D8801D09D98FB0EAC
:10164000DB50AF6EFB0EFC0EDBCF15F015C014F0B7
:10165000156A1450B06EAC8AAB8E949C948EAC50CC
:10166000100B04E0AC50800B01E1948CE552E5CF07
:08167000DAFFE7CFD9FF1200F9
:08167800D9CFE6FFDACFE6FF4F
:10168000E1CFD9FFE2CFDAFFFB0EDBCF14F0FC0E87
:10169000DBCF15F00001800E15141AE1FB0EDBCF35
:1016A000E9FFFC0EDBCFEAFFEECFF3FFEDCFF4FF57
:1016B000EE2A000EEF22F3CFE9FFF4CFEAFFFD0E92
:1016C000DBCFEFFFEF50156AF36E15C0F4FF10D0BB
:1016D000FB0EDB50FE0806E1FD0EDBCFE6FF99ECCA
:1016E0000CF005D0FD0EDBCFE6FF03EC00F0E55279
:0C16F000E552E5CFDAFFE7CFD9FF12008A
:0416FC00045009028B
:10170000F3CF00F0F4CF01F00A02F3500126000EEF
:10171000F420026E04500B02F3500226000EF42057
:10172000036E04500C02F350032605500902F350D7
:101730000126F4500222000E032205500A02F35043
:101740000226F450032205500B02F35003260650E4
:101750000902F3500226F450032206500A02F35005
:0C176000032607500902F3500326120074
:04176C00FE0EE3CFBB
:10177000E9FFFF0EE3CFEAFFF36AF46AEE5203E0FB
:10178000F34AF42AFBD71200FF0EE3CFF8FFE5522D
:10179000FF0EE3CFF7FFE552FF0EE3CFF6FFE55272
:1017A000E66AE66AE66A0900F55209E0FD0EE32AF8
:1017B00005E1FE0EE32A02E1FF0EE32AF4D7FD0E57
:1017C000E3CF05F0FE0EE3CF06F0FF0EE3CF07F008
:0217D000120005
:0E17D200036A026A016A006A200EE76ED89070
:1017E000043605360636073600360136023603362D
:1017F0000950005C0A5001580B5002580C50035815
:1018000009E30950005E0A50015A0B50025A0C506D
:0A181000035A042AE72EE4D7120061
:06181A00506F74656E635F
:10182000696F6D6574726F3A20256420200D0A413E
:101830006E67756C6F3A20256420200D0A506F7218
:1018400063656E74616A653A2025642525200D0A5A
:031850000D0A007E
:0C185400D9CFE6FFDACFE6FFE1CFD9FFE5
:10186000E2CFDAFFE652E652FC0EDBCFDEFFDBCF43
:10187000DDFF010EDB50CF6EDF50CE6EE552E5523C
:0C188000E552E5CFDAFFE7CFD9FF1200F8
:04188C00D9CFE6FFCB
:10189000DACFE6FFE1CFD9FFE2CFDAFFE652E65238
:1018A000FC0EDBCFDEFFDBCFDDFF010EDB50D76EA2
:1018B000DF50D66EE552E552E552E5CFDAFFE7CFCD
:0418C000D9FF12003A
:0C18C400FF0EE350296EEF0E01D0F30E72
:1018D000E76EE72E69EF0CF00C0E286EE76AE72E34
:1018E0006FEF0CF0282E6EEF0CF0292E67EF0CF046
:0218F0001200E4
:0E18F200F36AF46AFF0EE124E96EFF0EE220B5
:10190000EA6EED6607D02F0EEF6404D03A0EEF605A
:0619100001D0F32A1200D1
:0A1916001EEE00F02EEE00F0F86A5D
:101920000F9C5CEC0AF0B7EC0CF041EC09F0FBD733
:021930001200A3
:0E193200FF0EE350ACBA04D0AF6AAB8EAC8AA5
:0E194000949CACA2FED7AD6EF36EF46A12005A
:02194E00303136
:0F19500032333435363738396162636465660087
:0E19600000EE00F00F0EEE6AEA62FDD71200F4
:02196E00120065
:02197000FEFF78
:020000040030CA
:0100010006F8
:010002001FDE
:010003001EDE
:010005008377
:00000001FF
