:020000040000FA
:0600000051EF01F01200B7
:020006000000F8
:0600080007EF00F01200FA
:02000E00DACF47
:10001000E4FFE2CFDAFFE9CFE4FFEACFE4FFF6CF77
:10002000E4FFF7CFE4FFF5CFE4FFF3CFE4FFF4CF35
:10003000E4FFFACFE4FF00EE00F0020EE80403E371
:10004000EECFE4FFFBD700EE04F0000EE80403E37C
:10005000EECFE4FFFBD7E6528150816E81B814D019
:100060000C0E8C6E140EE66E2AEC01F0E5528C6AD2
:10007000140EE66E2AEC01F0E552030E8C6E140E9F
:10008000E66E2AEC01F0E55281BA1AD08C820A0E93
:10009000E66E2AEC01F0E5528C860A0EE66E2AEC3A
:1000A00001F0E5528C928C800A0EE66E2AEC01F08B
:1000B000E5528C968C840A0EE66E2AEC01F0E5522D
:1000C00081BC30D08C800A0EE66E2AEC01F0E5523D
:1000D0008C908C820A0EE66E2AEC01F0E5528C922E
:1000E0008C840A0EE66E2AEC01F0E5528C948C8624
:1000F000140EE66E2AEC01F0E5528C968C840A0E02
:10010000E66E2AEC01F0E5528C948C820A0EE66EC3
:100110002AEC01F0E5528C928C800A0EE66E2AECF5
:1001200001F0E55281BE15D00F0E8C6E140EE66EF6
:100130002AEC01F0E5528C6A140EE66E2AEC01F00E
:10014000E5520F0E8C6E140EE66E2AEC01F0E552AD
:1001500004D08C908C928C948C96F19EE55200EE9B
:1001600003F0000EE80403E3E5CFEDFFFBD700EE5C
:1001700001F0020EE80403E3E5CFEDFFFBD7E5CF86
:10018000FAFFE5CFF4FFE5CFF3FFE5CFF5FFE5CFCD
:10019000F7FFE5CFF6FFE5CFEAFFE5CFE9FFE5CFD3
:1001A000DAFF11008C6A956A9368F28EF28CF286FF
:0601B000F19EFFD71200D2
:0A01B600060EF66E000EF76E000E46
:1001C000F86E00010900F550856F0900F550866F43
:1001D00003E1856701D03DD00900F550806F09002B
:1001E000F550816F0900F550826F09000900F55044
:1001F000E96E0900F550EA6E090009000900F550A2
:10020000836F0900F550846F09000900F6CF87F06D
:10021000F7CF88F0F8CF89F080C0F6FF81C0F7FFF4
:1002200082C0F8FF0001835302E1845307E0090014
:10023000F550EE6E8307F8E28407F9D787C0F6FF22
:1002400088C0F7FF89C0F8FF00018507000E865BB4
:04025000BFD7120002
:0C025400FF0EE350036EEF0E01D0F30E1E
:10026000E76EE72E31EF01F00C0E026EE76AE72E23
:1002700037EF01F0022E36EF01F0032E2FEF01F0E1
:0202800012006A
:0E028200800EF36E00EE00F00F0E01D8120099
:10029000EA6002D0EE6AFCD7F350E9601200EE6A21
:0202A000FCD789
:0E02A2001EEE00F02EEE00F0F86A019CDBEC80
:0E02B00000F05FEC01F0D2EC00F0FBD7120082
:0202BE0012002C
:020000040030CA
:0100010002FC
:010005008179
:00000001FF
